{
  "_format": "hh-sol-artifact-1",
  "contractName": "TokenGenrator",
  "sourceName": "contracts/TokenGenrator.sol",
  "abi": [
    {
      "anonymous": false,
      "inputs": [
        {
          "indexed": false,
          "internalType": "string",
          "name": "tokenName",
          "type": "string"
        },
        {
          "indexed": false,
          "internalType": "string",
          "name": "tokenSymbol",
          "type": "string"
        },
        {
          "indexed": false,
          "internalType": "uint256",
          "name": "tokenSupply",
          "type": "uint256"
        }
      ],
      "name": "TokenCreated",
      "type": "event"
    },
    {
      "inputs": [
        {
          "internalType": "string",
          "name": "tokenName_",
          "type": "string"
        },
        {
          "internalType": "string",
          "name": "tokenSymbol_",
          "type": "string"
        },
        {
          "internalType": "uint256",
          "name": "tokenSupply_",
          "type": "uint256"
        }
      ],
      "name": "genrateTokens",
      "outputs": [],
      "stateMutability": "nonpayable",
      "type": "function"
    },
    {
      "inputs": [
        {
          "internalType": "uint256",
          "name": "",
          "type": "uint256"
        }
      ],
      "name": "tokenContractArray",
      "outputs": [
        {
          "internalType": "contract TokenContract",
          "name": "",
          "type": "address"
        }
      ],
      "stateMutability": "view",
      "type": "function"
    }
  ],
  "bytecode": "0x608060405234801561001057600080fd5b506121ee806100206000396000f3fe60806040523480156200001157600080fd5b50600436106200003a5760003560e01c806319403137146200003f578063b1fda6291462000075575b600080fd5b6200005d6004803603810190620000579190620002dd565b62000095565b6040516200006c91906200037d565b60405180910390f35b6200009360048036038101906200008d919062000255565b620000d5565b005b60008181548110620000a657600080fd5b906000526020600020016000915054906101000a900473ffffffffffffffffffffffffffffffffffffffff1681565b600083838333604051620000e990620001be565b620000f89493929190620003e5565b604051809103906000f08015801562000115573d6000803e3d6000fd5b5090506000819080600181540180825580915050600190039060005260206000200160009091909190916101000a81548173ffffffffffffffffffffffffffffffffffffffff021916908373ffffffffffffffffffffffffffffffffffffffff1602179055507f35d0b9713cc4b54bb91a9bfa420b091d37c592d49a7468dafe20b4cfbdfca02a848484604051620001b0939291906200039a565b60405180910390a150505050565b611bc280620005f783390190565b6000620001e3620001dd8462000469565b62000440565b905082815260208101848484011115620001fc57600080fd5b6200020984828562000521565b509392505050565b600082601f8301126200022357600080fd5b813562000235848260208601620001cc565b91505092915050565b6000813590506200024f81620005dc565b92915050565b6000806000606084860312156200026b57600080fd5b600084013567ffffffffffffffff8111156200028657600080fd5b620002948682870162000211565b935050602084013567ffffffffffffffff811115620002b257600080fd5b620002c08682870162000211565b9250506040620002d3868287016200023e565b9150509250925092565b600060208284031215620002f057600080fd5b600062000300848285016200023e565b91505092915050565b6200031481620004bb565b82525050565b6200032581620004f9565b82525050565b600062000338826200049f565b620003448185620004aa565b93506200035681856020860162000530565b6200036181620005cb565b840191505092915050565b6200037781620004ef565b82525050565b60006020820190506200039460008301846200031a565b92915050565b60006060820190508181036000830152620003b681866200032b565b90508181036020830152620003cc81856200032b565b9050620003dd60408301846200036c565b949350505050565b600060808201905081810360008301526200040181876200032b565b905081810360208301526200041781866200032b565b90506200042860408301856200036c565b62000437606083018462000309565b95945050505050565b60006200044c6200045f565b90506200045a828262000566565b919050565b6000604051905090565b600067ffffffffffffffff8211156200048757620004866200059c565b5b6200049282620005cb565b9050602081019050919050565b600081519050919050565b600082825260208201905092915050565b6000620004c882620004cf565b9050919050565b600073ffffffffffffffffffffffffffffffffffffffff82169050919050565b6000819050919050565b600062000506826200050d565b9050919050565b60006200051a82620004cf565b9050919050565b82818337600083830152505050565b60005b838110156200055057808201518184015260208101905062000533565b8381111562000560576000848401525b50505050565b6200057182620005cb565b810181811067ffffffffffffffff821117156200059357620005926200059c565b5b80604052505050565b7f4e487b7100000000000000000000000000000000000000000000000000000000600052604160045260246000fd5b6000601f19601f8301169050919050565b620005e781620004ef565b8114620005f357600080fd5b5056fe60806040523480156200001157600080fd5b5060405162001bc238038062001bc283398181016040528101906200003791906200038f565b83838160039080519060200190620000519291906200023f565b5080600490805190602001906200006a9291906200023f565b505050620000a98162000082620000b360201b60201c565b600a620000909190620005cc565b846200009d919062000709565b620000bc60201b60201c565b505050506200095f565b60006012905090565b600073ffffffffffffffffffffffffffffffffffffffff168273ffffffffffffffffffffffffffffffffffffffff1614156200012f576040517f08c379a0000000000000000000000000000000000000000000000000000000008152600401620001269062000465565b60405180910390fd5b62000143600083836200023560201b60201c565b806002600082825462000157919062000514565b92505081905550806000808473ffffffffffffffffffffffffffffffffffffffff1673ffffffffffffffffffffffffffffffffffffffff1681526020019081526020016000206000828254620001ae919062000514565b925050819055508173ffffffffffffffffffffffffffffffffffffffff16600073ffffffffffffffffffffffffffffffffffffffff167fddf252ad1be2c89b69c2b068fc378daa952ba7f163c4a11628f55a4df523b3ef8360405162000215919062000487565b60405180910390a362000231600083836200023a60201b60201c565b5050565b505050565b505050565b8280546200024d90620007eb565b90600052602060002090601f016020900481019282620002715760008555620002bd565b82601f106200028c57805160ff1916838001178555620002bd565b82800160010185558215620002bd579182015b82811115620002bc5782518255916020019190600101906200029f565b5b509050620002cc9190620002d0565b5090565b5b80821115620002eb576000816000905550600101620002d1565b5090565b6000620003066200030084620004cd565b620004a4565b9050828152602081018484840111156200031f57600080fd5b6200032c848285620007b5565b509392505050565b60008151905062000345816200092b565b92915050565b600082601f8301126200035d57600080fd5b81516200036f848260208601620002ef565b91505092915050565b600081519050620003898162000945565b92915050565b60008060008060808587031215620003a657600080fd5b600085015167ffffffffffffffff811115620003c157600080fd5b620003cf878288016200034b565b945050602085015167ffffffffffffffff811115620003ed57600080fd5b620003fb878288016200034b565b93505060406200040e8782880162000378565b9250506060620004218782880162000334565b91505092959194509250565b60006200043c601f8362000503565b9150620004498262000902565b602082019050919050565b6200045f816200079e565b82525050565b6000602082019050818103600083015262000480816200042d565b9050919050565b60006020820190506200049e600083018462000454565b92915050565b6000620004b0620004c3565b9050620004be828262000821565b919050565b6000604051905090565b600067ffffffffffffffff821115620004eb57620004ea620008b5565b5b620004f682620008e4565b9050602081019050919050565b600082825260208201905092915050565b600062000521826200079e565b91506200052e836200079e565b9250827fffffffffffffffffffffffffffffffffffffffffffffffffffffffffffffffff0382111562000566576200056562000857565b5b828201905092915050565b6000808291508390505b6001851115620005c3578086048111156200059b576200059a62000857565b5b6001851615620005ab5780820291505b8081029050620005bb85620008f5565b94506200057b565b94509492505050565b6000620005d9826200079e565b9150620005e683620007a8565b9250620006157fffffffffffffffffffffffffffffffffffffffffffffffffffffffffffffffff84846200061d565b905092915050565b6000826200062f576001905062000702565b816200063f576000905062000702565b8160018114620006585760028114620006635762000699565b600191505062000702565b60ff84111562000678576200067762000857565b5b8360020a91508482111562000692576200069162000857565b5b5062000702565b5060208310610133831016604e8410600b8410161715620006d35782820a905083811115620006cd57620006cc62000857565b5b62000702565b620006e2848484600162000571565b92509050818404811115620006fc57620006fb62000857565b5b81810290505b9392505050565b600062000716826200079e565b915062000723836200079e565b9250817fffffffffffffffffffffffffffffffffffffffffffffffffffffffffffffffff04831182151516156200075f576200075e62000857565b5b828202905092915050565b600062000777826200077e565b9050919050565b600073ffffffffffffffffffffffffffffffffffffffff82169050919050565b6000819050919050565b600060ff82169050919050565b60005b83811015620007d5578082015181840152602081019050620007b8565b83811115620007e5576000848401525b50505050565b600060028204905060018216806200080457607f821691505b602082108114156200081b576200081a62000886565b5b50919050565b6200082c82620008e4565b810181811067ffffffffffffffff821117156200084e576200084d620008b5565b5b80604052505050565b7f4e487b7100000000000000000000000000000000000000000000000000000000600052601160045260246000fd5b7f4e487b7100000000000000000000000000000000000000000000000000000000600052602260045260246000fd5b7f4e487b7100000000000000000000000000000000000000000000000000000000600052604160045260246000fd5b6000601f19601f8301169050919050565b60008160011c9050919050565b7f45524332303a206d696e7420746f20746865207a65726f206164647265737300600082015250565b62000936816200076a565b81146200094257600080fd5b50565b62000950816200079e565b81146200095c57600080fd5b50565b611253806200096f6000396000f3fe608060405234801561001057600080fd5b50600436106100a95760003560e01c80633950935111610071578063395093511461016857806370a082311461019857806395d89b41146101c8578063a457c2d7146101e6578063a9059cbb14610216578063dd62ed3e14610246576100a9565b806306fdde03146100ae578063095ea7b3146100cc57806318160ddd146100fc57806323b872dd1461011a578063313ce5671461014a575b600080fd5b6100b6610276565b6040516100c39190610d19565b60405180910390f35b6100e660048036038101906100e19190610b67565b610308565b6040516100f39190610cfe565b60405180910390f35b61010461032b565b6040516101119190610e1b565b60405180910390f35b610134600480360381019061012f9190610b18565b610335565b6040516101419190610cfe565b60405180910390f35b610152610364565b60405161015f9190610e36565b60405180910390f35b610182600480360381019061017d9190610b67565b61036d565b60405161018f9190610cfe565b60405180910390f35b6101b260048036038101906101ad9190610ab3565b6103a4565b6040516101bf9190610e1b565b60405180910390f35b6101d06103ec565b6040516101dd9190610d19565b60405180910390f35b61020060048036038101906101fb9190610b67565b61047e565b60405161020d9190610cfe565b60405180910390f35b610230600480360381019061022b9190610b67565b6104f5565b60405161023d9190610cfe565b60405180910390f35b610260600480360381019061025b9190610adc565b610518565b60405161026d9190610e1b565b60405180910390f35b60606003805461028590610f4b565b80601f01602080910402602001604051908101604052809291908181526020018280546102b190610f4b565b80156102fe5780601f106102d3576101008083540402835291602001916102fe565b820191906000526020600020905b8154815290600101906020018083116102e157829003601f168201915b5050505050905090565b60008061031361059f565b90506103208185856105a7565b600191505092915050565b6000600254905090565b60008061034061059f565b905061034d858285610772565b6103588585856107fe565b60019150509392505050565b60006012905090565b60008061037861059f565b905061039981858561038a8589610518565b6103949190610e6d565b6105a7565b600191505092915050565b60008060008373ffffffffffffffffffffffffffffffffffffffff1673ffffffffffffffffffffffffffffffffffffffff168152602001908152602001600020549050919050565b6060600480546103fb90610f4b565b80601f016020809104026020016040519081016040528092919081815260200182805461042790610f4b565b80156104745780601f1061044957610100808354040283529160200191610474565b820191906000526020600020905b81548152906001019060200180831161045757829003601f168201915b5050505050905090565b60008061048961059f565b905060006104978286610518565b9050838110156104dc576040517f08c379a00000000000000000000000000000000000000000000000000000000081526004016104d390610dfb565b60405180910390fd5b6104e982868684036105a7565b60019250505092915050565b60008061050061059f565b905061050d8185856107fe565b600191505092915050565b6000600160008473ffffffffffffffffffffffffffffffffffffffff1673ffffffffffffffffffffffffffffffffffffffff16815260200190815260200160002060008373ffffffffffffffffffffffffffffffffffffffff1673ffffffffffffffffffffffffffffffffffffffff16815260200190815260200160002054905092915050565b600033905090565b600073ffffffffffffffffffffffffffffffffffffffff168373ffffffffffffffffffffffffffffffffffffffff161415610617576040517f08c379a000000000000000000000000000000000000000000000000000000000815260040161060e90610ddb565b60405180910390fd5b600073ffffffffffffffffffffffffffffffffffffffff168273ffffffffffffffffffffffffffffffffffffffff161415610687576040517f08c379a000000000000000000000000000000000000000000000000000000000815260040161067e90610d5b565b60405180910390fd5b80600160008573ffffffffffffffffffffffffffffffffffffffff1673ffffffffffffffffffffffffffffffffffffffff16815260200190815260200160002060008473ffffffffffffffffffffffffffffffffffffffff1673ffffffffffffffffffffffffffffffffffffffff168152602001908152602001600020819055508173ffffffffffffffffffffffffffffffffffffffff168373ffffffffffffffffffffffffffffffffffffffff167f8c5be1e5ebec7d5bd14f71427d1e84f3dd0314c0f7b2291e5b200ac8c7c3b925836040516107659190610e1b565b60405180910390a3505050565b600061077e8484610518565b90507fffffffffffffffffffffffffffffffffffffffffffffffffffffffffffffffff81146107f857818110156107ea576040517f08c379a00000000000000000000000000000000000000000000000000000000081526004016107e190610d7b565b60405180910390fd5b6107f784848484036105a7565b5b50505050565b600073ffffffffffffffffffffffffffffffffffffffff168373ffffffffffffffffffffffffffffffffffffffff16141561086e576040517f08c379a000000000000000000000000000000000000000000000000000000000815260040161086590610dbb565b60405180910390fd5b600073ffffffffffffffffffffffffffffffffffffffff168273ffffffffffffffffffffffffffffffffffffffff1614156108de576040517f08c379a00000000000000000000000000000000000000000000000000000000081526004016108d590610d3b565b60405180910390fd5b6108e9838383610a7f565b60008060008573ffffffffffffffffffffffffffffffffffffffff1673ffffffffffffffffffffffffffffffffffffffff1681526020019081526020016000205490508181101561096f576040517f08c379a000000000000000000000000000000000000000000000000000000000815260040161096690610d9b565b60405180910390fd5b8181036000808673ffffffffffffffffffffffffffffffffffffffff1673ffffffffffffffffffffffffffffffffffffffff16815260200190815260200160002081905550816000808573ffffffffffffffffffffffffffffffffffffffff1673ffffffffffffffffffffffffffffffffffffffff1681526020019081526020016000206000828254610a029190610e6d565b925050819055508273ffffffffffffffffffffffffffffffffffffffff168473ffffffffffffffffffffffffffffffffffffffff167fddf252ad1be2c89b69c2b068fc378daa952ba7f163c4a11628f55a4df523b3ef84604051610a669190610e1b565b60405180910390a3610a79848484610a84565b50505050565b505050565b505050565b600081359050610a98816111ef565b92915050565b600081359050610aad81611206565b92915050565b600060208284031215610ac557600080fd5b6000610ad384828501610a89565b91505092915050565b60008060408385031215610aef57600080fd5b6000610afd85828601610a89565b9250506020610b0e85828601610a89565b9150509250929050565b600080600060608486031215610b2d57600080fd5b6000610b3b86828701610a89565b9350506020610b4c86828701610a89565b9250506040610b5d86828701610a9e565b9150509250925092565b60008060408385031215610b7a57600080fd5b6000610b8885828601610a89565b9250506020610b9985828601610a9e565b9150509250929050565b610bac81610ed5565b82525050565b6000610bbd82610e51565b610bc78185610e5c565b9350610bd7818560208601610f18565b610be081610fdb565b840191505092915050565b6000610bf8602383610e5c565b9150610c0382610fec565b604082019050919050565b6000610c1b602283610e5c565b9150610c268261103b565b604082019050919050565b6000610c3e601d83610e5c565b9150610c498261108a565b602082019050919050565b6000610c61602683610e5c565b9150610c6c826110b3565b604082019050919050565b6000610c84602583610e5c565b9150610c8f82611102565b604082019050919050565b6000610ca7602483610e5c565b9150610cb282611151565b604082019050919050565b6000610cca602583610e5c565b9150610cd5826111a0565b604082019050919050565b610ce981610f01565b82525050565b610cf881610f0b565b82525050565b6000602082019050610d136000830184610ba3565b92915050565b60006020820190508181036000830152610d338184610bb2565b905092915050565b60006020820190508181036000830152610d5481610beb565b9050919050565b60006020820190508181036000830152610d7481610c0e565b9050919050565b60006020820190508181036000830152610d9481610c31565b9050919050565b60006020820190508181036000830152610db481610c54565b9050919050565b60006020820190508181036000830152610dd481610c77565b9050919050565b60006020820190508181036000830152610df481610c9a565b9050919050565b60006020820190508181036000830152610e1481610cbd565b9050919050565b6000602082019050610e306000830184610ce0565b92915050565b6000602082019050610e4b6000830184610cef565b92915050565b600081519050919050565b600082825260208201905092915050565b6000610e7882610f01565b9150610e8383610f01565b9250827fffffffffffffffffffffffffffffffffffffffffffffffffffffffffffffffff03821115610eb857610eb7610f7d565b5b828201905092915050565b6000610ece82610ee1565b9050919050565b60008115159050919050565b600073ffffffffffffffffffffffffffffffffffffffff82169050919050565b6000819050919050565b600060ff82169050919050565b60005b83811015610f36578082015181840152602081019050610f1b565b83811115610f45576000848401525b50505050565b60006002820490506001821680610f6357607f821691505b60208210811415610f7757610f76610fac565b5b50919050565b7f4e487b7100000000000000000000000000000000000000000000000000000000600052601160045260246000fd5b7f4e487b7100000000000000000000000000000000000000000000000000000000600052602260045260246000fd5b6000601f19601f8301169050919050565b7f45524332303a207472616e7366657220746f20746865207a65726f206164647260008201527f6573730000000000000000000000000000000000000000000000000000000000602082015250565b7f45524332303a20617070726f766520746f20746865207a65726f20616464726560008201527f7373000000000000000000000000000000000000000000000000000000000000602082015250565b7f45524332303a20696e73756666696369656e7420616c6c6f77616e6365000000600082015250565b7f45524332303a207472616e7366657220616d6f756e742065786365656473206260008201527f616c616e63650000000000000000000000000000000000000000000000000000602082015250565b7f45524332303a207472616e736665722066726f6d20746865207a65726f20616460008201527f6472657373000000000000000000000000000000000000000000000000000000602082015250565b7f45524332303a20617070726f76652066726f6d20746865207a65726f2061646460008201527f7265737300000000000000000000000000000000000000000000000000000000602082015250565b7f45524332303a2064656372656173656420616c6c6f77616e63652062656c6f7760008201527f207a65726f000000000000000000000000000000000000000000000000000000602082015250565b6111f881610ec3565b811461120357600080fd5b50565b61120f81610f01565b811461121a57600080fd5b5056fea2646970667358221220c56f6702bd4888c426bb0cc04edf6ebe15502c163023906ea241afc8abd11dad64736f6c63430008040033a26469706673582212205afe1561588bde2f3233ad58fe2bb71f063b0e3a25ae1b4840ef70597cf4ce9764736f6c63430008040033",
  "linkReferences": {},
  "deployedLinkReferences": {}
}